00000024001693                                                  36.5 300/275 MG TAB 12                                                                              0            0             650240016936
00000104316160                                                  3TC 150 MG TAB 60                                                                                   0            0            7501043161602
00000143830032                                                  5 HTP SUP ALIM TAB 60                                                                               0            0            7501438300326
00000226236002                                                  5-HTP VALERIANA 16G CAPS 30                                                                         0            0            7502262360029
00000470690615A D C PRIMERA-PREV CAPS                           12                                                                                                  0            0             714706906152
00000224270007ABBATIN                                           10 MG TAB 20                                                                                        0            0            7502242700074
00000224270008ABBATIN                                           10 MG TAB 30                                                                                        0            0            7502242700081
00000224270018ABBATIN                                           5 MG TAB 20                                                                                         0            0            7502242700180
00000224270019ABBATIN                                           5 MG TAB MAST 30                                                                                    0            0            7502242700197
00000109540206ABILIFY                                           10 MG TAB 10                                                                                        0            0            7501095402067
00000109540207ABILIFY                                           15 MG TAB 10                                                                                        0            0            7501095402074
00000109540218ABILIFY                                           15 MG TAB 20                                                                                        0            0            7501095402180
00000109540210ABILIFY                                           30 MG TAB 10                                                                                        0            0            7501095402104
00000108980342AB-LIFE                                           15.9 G SUP ALIM CAPS 30                                                                             0            0            7501089803429
00000130042012ABRETIA                                           0.30 MG C/14 CAPS                                                                                   0            0            7501300420121
00000130042011ABRETIA                                           0.30 MG C/7 CAPS                                                                                    0            0            7501300420114
00000130042013ABRETIA                                           0.60 MG C/14 CAPS                                                                                   0            0            7501300420138
00000300731531ABRIXONE                                          500 MG TAB 10                                                                                       0            0            7503007315311
00000107063846ABRIXONE                                          500MG TAB 10 3PACK                                                                                  0            0            7501070638467
00000112514175AC ACETILSALICILICO                               300MG TAB EFERGI                                                                                    0            0            7501125141751
00000222311221AC ASCORBICO TAB EFERV                            10      LGEN                                                                                        0            0            7502223112216
00000182530214AC NALIDIX/FENAZOPIR                              500/50MG TAB20                                                                                      0            0            7501825302148
00000120811043ACACIN                                            500 MG CAPS 20                                                                                      0            0             751208110434
00000226236005ACAI EXTRACTO                                     1000MG CAPS 65                                                                                      0            0            7502262360050
00000132897871ACANOL                                            2MG CPR 12                                                                                          0            0            7501328978710
00000222629148ACARBOSA                                          100MG TAB 30            GI                                                                          0            0            7502226291482
00000222629034ACARBOSA                                          50 MG TAB 30            GI                                                                          0            0            7502226290348
00000222629174ACARBOSA                                          50 MG TAB 30            GI                                                                          0            0            7502226291741
00000222629317ACARBOSA                                          50 MG TAB 30          LGEN                                                                          0            0            7502226293172
00000149388936ACARBOSA                                          50 MG TAB 30      KENER GI                                                                          0            0            7501493889361
00000220985227ACAVEXAL                                          160 MG TAB 30                                                                                       0            0            7502209852273
00000220985226ACAVEXAL                                          80 MG TAB 30                                                                                        0            0            7502209852266
00000221693122ACC                                               200 MG TAB EFERV 20                                                                                 0            0            7502216931220
00000221693086ACC                                               600 MG TAB EFERV 20                                                                                 0            0            7502216930865
00000225400029ACCOCEPT                                          500 MG TAB 50                                                                                       0            0            7502254000292
00000132440331ACCOLATE  INF                                     10 MG TAB 28                                                                                        0            0            7501324403315
00000132440330ACCOLATE                                          20 MG TAB 28                                                                                        0            0            7501324403308
00000139091261ACCOTAZ                                           15 MG TAB 7                                                                                         0            0            7501390912612
00000222787001ACECLOFENACO                                      100 MG TAB 10     LGEN                                                                              0            0            7502227870013
00000222787318ACECLOFENACO                                      100 MG TABS 10      MG                                                                              0            0            7502227873182
00000226236009ACEITE DE PESCADO SIN OLOR CAPS                   65                                                                                                  0            0            7502262360098
00000226236202ACEITE DE PRIMULA SUP ALIM CAPS                   60                                                                                                  0            0            7502262362023
00000840000002ACETA-DIAZOL                                      250 MG TAB 30                                                                                       0            0               8400000026
00000149386752ACETAZOLAMIDA                                     250 MG TAB 20    LGEN                                                                               0            0            7501493867529
00000107571025ACETIF                                            500 MG TAB 10            GOB                                                                        0            0            7501075710250
00000113071127AC-HIGADO BACALAO GELCAPS PERL                    100                                                                                                 0            0            7501130711277
00000113071202AC-HIGADO TIBURON GEL CAPS PERL                   100                                                                                                 0            0            7501130712021
00000156850077AC-HIGADO TIBURON KANIN CAPS                      100                                                                                                 0            0            7501568500771
00000156850086AC-HIGADO TIBURON KANIN CAPS                      50                                                                                                  0            0            7501568500863
00000190825518ACICLOVIR                                         200 MG COMPRIMIDOS 25  GM                                                                           0            0            7501908255187
00000190825020ACICLOVIR                                         200 MG CPR 25        LGEN                                                                           0            0            7501908250205
00000157390027ACICLOVIR                                         200 MG CPR 25     LGEN N                                                                            0            0            7501573900276
00000157392126ACICLOVIR                                         400 MG CPR 35        LGEN                                                                           0            0            7501573921264
00000112513548ACICLOVIR                                         400 MG TAB 35       PTS                                                                             0            0            7501125135484
00000167267001ACICLOVIR                                         400 MG TABLETAS 35     GM                                                                           0            0            7501672670018
00000112418062ACICRAN CRANB-VITC                                500/50MG TAB30                                                                                      0            0            7501124180621
00000112418198ACICRAN MAX TAB RECUB                             30                                                                                                  0            0            7501124181987
00000221679859ACIDO ACETILSALI                                  100MG TAB30   LGEN                                                                                  0            0            7502216798595
00000167260436ACIDO ACETILSALI                                  500MG TAB20   LGEN                                                                                  0            0            7501672604365
00000300259150ACIDO ACETILSALI                                  500MG TAB20   LGEN                                                                                  0            0            7503002591505
00000167267102ACIDO ACETILSALICILICO                            500MGTAB20GI                                                                                        0            0            7501672671022
00000112513551ACIDO ALENDROMICO                                 10MG TAB30   PTSGI                                                                                  0            0            7501125135514
00000157390549ACIDO ASCORBICO                                   100MG TAB20    LGEN                                                                                 0            0            7501573905493
00000100416089ACIDO FOLICO .                                    4 MG TAB 90      3H                                                                                 0            0            7501004160897
00000107571970ACIDO FOLICO                                      0.4MG TAB 90      LGEN                                                                              0            0            7501075719703
00000225326353ACIDO FOLICO                                      400 MCG TAB 90                                                                                      0            0            7502253263537
00000144606001ACIDO FOLICO                                      5 MG TAB 20         GI                                                                              0            0            7501446060014
00000144604007ACIDO FOLICO                                      5MG FCO 20 TAB    LGEN                                                                              0            0            7501446040078
00000225326375ACIDO FOLICO                                      5MG TAB 50                                                                                          0            0            7502253263759
00000143830039ACIDO GLUTAMICO SUP ALIM TAB                      60                                                                                                  0            0            7501438300395
00000107571828ACIDO MEFENAMICO                                  500 MG TAB 20   GM                                                                                  0            0            7501075718287
00000107571971ACIDO MEFENAMICO                                  500 MG TAB 20 LGEN                                                                                  0            0            7501075719710
00000107571829ACIDO PIPEMIDICO                                  400 MG  TAB 20  GM                                                                                  0            0            7501075718294
00000221679483ACIDO RESEDRONICOS                                35 MG GRAG 4   GI                                                                                   0            0            7502216794832
00000221679486ACIDO RISEDRONICO                                 5 MG GRAG 28   GI                                                                                   0            0            7502216794863
00000171161108ACIDOACETI/MET                                    400/350MGTAB30   LGEN                                                                               0            0            7501711611088
00000171161603ACIDO-ACETILSALI                                  500MG TAB20   LGEN                                                                                  0            0            7501711616038
00000144600074ACIDO-FOLICO                                      0.4 MG TAB 90                                                                                       0            0            7501446000744
00000144600001ACIDO-FOLICO                                      5 MG TAB 20                                                                                         0            0            7501446000010
00000144600055ACIDO-FOLICO                                      5 MG TAB 50                                                                                         0            0            7501446000553
00000144600034ACIDO-FOLICO                                      5 MG TAB 92                                                                                         0            0            7501446000348
00000221679344ACIDO-RISEDRON                                    35 MG GRAG 4   PTSGI                                                                                0            0            7502216793446
00000221679355ACIDO-RISEDRON                                    5 MG GRAG 28   PTSGI                                                                                0            0            7502216793552
00000120810169ACIFOL                                            10MG TAB C/30                                                                                       0            0             751208101692
00000107090238ACLIMAFEL                                         100MG CAPS 20      396                                                                              0            0            7501070902384
00000129930002ACLORAL                                           300 MG TAB 10                                                                                       0            0            7501299300022
00000129930677ACLORAL OFTA                                      150MG TABS20C/3                                                                                     0            0            7501299306772
00000129930330ACLORAL TRIATES                                   300 MG TAB 10                                                                                       0            0            7501299303306
00000107235000ACON                                              50,000 U CAPS 40                                                                                    0            0            7501072350008
00000139091267ACOTOPA                                           100 MG 20 TAB                                                                                       0            0            7501390912674
00000139091265ACOTOPA                                           25 MG 20 TAB                                                                                        0            0            7501390912650
00000110876761ACROMICINA                                        250 MG TAB 20                                                                                       0            0            7501108767619
00000113070358AC-SALMON                                         100 MG GELCAPS 100                                                                                  0            0            7501130703586
00000254725214ACTIFED-DIA                                       325/5MG TAB24 NVAFORM                                                                               0            0             312547252140
00000254725217ACTIFED-NOCHE                                     325/25/5MGTAB20NVAF                                                                                 0            0             312547252171
00000108980116ACTINIUM                                          300 MG TAB 20                                                                                       0            0            7501089801166
00000108980117ACTINIUM                                          600 MG TAB 20                                                                                       0            0            7501089801173
00000116500288ACTONEL                                           35 MG GRAG 4                                                                                        0            0            7501165002883
00000116500218ACTONEL                                           5 MG GRAG 28                                                                                        0            0            7501165002180
00000131860892ACTRON-                                           200 200 MG CAPS 10                                                                                  0            0            7501318608924
00000131860890ACTRON-                                           400 400 MG CAPS 10    474                                                                           0            0            7501318608900
00000131863470ACTRON-                                           400 400 MG CAPS 30                                                                                  0            0            7501318634701
00000131860902ACTRON-                                           600 600 MG CAPS 10    184                                                                           0            0            7501318609020
00000131863475ACTRON-                                           600 600 MG CAPS 30    389                                                                           0            0            7501318634756
00000131863473ACTRON-PLUS                                       400/100 MG CAPS 10                                                                                  0            0            7501318634732
00000128765060ACUPRIL                                           10 MG GRAG 21                                                                                       0            0            7501287650603
00000128765070ACUPRIL                                           20 MG GRAG 14                                                                                       0            0            7501287650702
00000128765050ACUPRIL                                           20 MG GRAG 21                                                                                       0            0            7501287650504
00000124960580ACXION                                            15 MG TAB 30                                                                                        0            0            7501249605801
00000124960581ACXION                                            30 MG TAB 30          568                                                                           0            0            7501249605818
00000124960584ACXION AP                                         30 MG TAB 30 LIB PROL                                                                               0            0            7501249605849
00000124960291ACXION C                                          15 MG CAPS 15                                                                                       0            0            7501249602916
00000131861527ADALAT                                            10 MG CAPS 100                                                                                      0            0            7501318615274
00000131863566ADALAT                                            10 MG CAPS 24                                                                                       0            0            7501318635661
00000131863137ADALAT                                            10 MG CAPS 30                                                                                       0            0            7501318631373
00000131863571ADALAT                                            10 MG CAPS 48                                                                                       0            0            7501318635715
00000131861438ADALAT                                            10 MG CAPS 50                                                                                       0            0            7501318614383
00000131863573ADALAT                                            10 MG CAPS 96                                                                                       0            0            7501318635739
00000131863514ADALAT-CC                                         30 MG CPR 10                                                                                        0            0            7501318635142
00000131863513ADALAT-CC                                         30 MG CPR 30                                                                                        0            0            7501318635135
00000007500591ADALAT-OROS                                       30 MG TAB 10                                                                                        0            0                 75005917
00000007500742ADALAT-OROS                                       30 MG TAB 30     303                                                                                0            0                 75007423
00000131863522ADALAT-OROS                                       60 MG TAB 10                                                                                        0            0            7501318635227
00000131863578ADALAT-RETARD                                     20 MG CPR 28                                                                                        0            0            7501318635784
00000131863585ADALAT-RETARD                                     20 MG CPR 56                                                                                        0            0            7501318635852
00000108630118AD-COL                                            0.40G CAPS 2                                                                                        0            0            7501086301188
00000108630089AD-COL AD                                         0.40G CAPS C/10                                                                                     0            0            7501086300891
00000108630088AD-COL INF                                        0.20G CAPS C/10                                                                                     0            0            7501086300884
00000187172041ADECUR                                            2MG TAB15                                                                                           0            0            7501871720415
00000187172042ADECUR                                            2MG TAB30                                                                                           0            0            7501871720422
00000187172044ADECUR                                            5MG TAB 30                                                                                          0            0            7501871720446
00000222629269ADEFAXIN XR                                       150 MG CAPS 10                                                                                      0            0            7502226292694
00000222629270ADEFAXIN XR                                       150 MG CAPS 20                                                                                      0            0            7502226292700
00000222629267ADEFAXIN XR                                       75 MG CAPS 10                                                                                       0            0            7502226292670
00000222629268ADEFAXIN XR                                       75 MG CAPS 20                                                                                       0            0            7502226292687
00000131470196ADEL                                              250 MG TAB 10 #196                                                                                  0            0            7501314701964
00000131470192ADEL                                              500 MG TAB 10           511                                                                         0            0            7501314701926
00000107064887ADENASA                                           500MG TAB 7                                                                                         0            0            7501070648879
00000138450201ADEPSIQUE                                         10/3/2MG TAB 30                                                                                     0            0            7501384502010
00000138450202ADEPSIQUE                                         10/3/2MG TAB 90                                                                                     0            0            7501384502027
00000108980884ADIMOD                                            400 MG TAB 20                                                                                       0            0            7501089808844
00000184290009ADOPREN                                           400 MG TAB 10          LGEN                                                                         0            0            7501842900099
00000184290010ADOPREN                                           600 MG TAB 10          LGEN                                                                         0            0            7501842900105
00000184295289ADOPREN                                           800 MG TAB 10          LGEN                                                                         0            0            7501842952890
00000224664141ADPREVENTC AD CAPS                                30                                                                                                  0            0            7502246641410
00000224664142ADPREVENTC INF CAPS                               30                                                                                                  0            0            7502246641427
00000134280086ADRECORT                                          1 MG TAB 20                                                                                         0            0            7501342800868
00000221578741ADRIPHEL                                          1 G EFERV CPR 10                                                                                    0            0            7502215787415
00000221578761ADRIPHEL                                          2 G EFERV CPR 10                                                                                    0            0            7502215787613
00000225400037ADVANPRO                                          50MG C/28 TABS.                                                                                     0            0            7502254000377
00000633570179ADVANPRO                                          50MG C/28 TABS.                                                                                     0            0            7506335701795
00000170800485ADVANPRO                                          50MG TAB 28                                                                                         0            0            8901708004852
00000118180204ADVIL                                             200 MG GRAG 100                                                                                     0            0            7501181802047
00000007500932ADVIL                                             200 MG GRAG 12                                                                                      0            0                 75009328
00000110876222ADVIL                                             200 MG GRAG 25                                                                                      0            0            7501108762225
00000007501858ADVIL                                             200 MG GRAG SB C/2       S                                                                          0            0                 75018580
00000128761047ADVIL                                             200 MG TAB 24                                                                                       0            0            7501287610478
00000110876831ADVIL                                             200MG GEL 20CAPS + 10GTS                                                                            0            0            7501108768319
00000110876752ADVIL                                             400 MG CAPS 10                                                                                      0            0            7501108767527
00000110876347ADVIL FAST-GEL                                    200 MG CAPS 10                                                                                      0            0            7501108763475
00000110876346ADVIL FAST-GEL                                    200 MG CAPS 20                                                                                      0            0            7501108763468
00000128768575ADVIL LIFT                                        200MG/65MG CAPS 10                                                                                  0            0            7501287685759
00000128768580ADVIL MAX                                         400 MG CAPS 12                                                                                      0            0            7501287685803
00000110876794ADVIL MAX                                         400 MG CAPS 20                                                                                      0            0            7501108767947
00000024001160AEROFIT ANT-GASES                                 125MG CAPS  10                                                                                      0            0             650240011603
00000112481581AFINITOR                                          10 MG CPR 30                                                                                        0            0            7501124815813
00000112481580AFINITOR                                          5 MG CPR 30                                                                                         0            0            7501124815806
00000103463515AFLAMID                                           15 MG TAB 5                                                                                         0            0            7501034635150
00000159028300AFLEX-                                            3 SUP ALIM CPR 60                                                                                   0            0            7501590283000
00000222629251AFOGATTO                                          15 MG CAPS 14                                                                                       0            0            7502226292519
00000105062935AFRIN LUB AD + DESENF TAB                         24 GTIS                                                                                             0            0            7501050629355
00000105062933AFRIN LUB INF +DESENF-ITOTAB                      24GTIS                                                                                              0            0            7501050629331
00000105062769AFRIN LUB+AFRINEXACT                              20 TAB                                                                                              0            0            7501050627696
00000105063302AFRIN ORIG                                        15ML+AFRINEX EFX12 TAB10                                                                            0            0            7501050633024
00000105061709AFRINEX                                           1.0/2.5/80 MG TAB 24                                                                                0            0            7501050617093
00000105061994AFRINEX EFX-                                      12 30/6MG TAB 10                                                                                    0            0            7501050619943
00000105061948AFRINEX-ACTIVE                                    500/25/5/4MG TAB20                                                                                  0            0            7501050619486
00000105061769AFRINEX-HA                                        2.0/5.0/500 MG TAB 20                                                                               0            0            7501050617697
00000131470554AFUMIX                                            37.5/500 MG TAB 4     135                                                                           0            0            7501314705542
00000131470534AFUNGIL                                           100 MG CAPS 10 #534                                                                                 0            0            7501314705344
00000131470531AFUNGIL                                           150 MG CAPS1 OFTA1+1 238                                                                            0            0            7501314705313
00000103790011AGGRENOX                                          200/25 MG CAPS 60                                                                                   0            0            7501037900118
00000222422014AG-H ANTIGRIPAL GRAG                              10                                                                                                  0            0            7502224220149
00000022242201AG-H PAQ GRAG                                     10/5 PZAS GTIS 1                                                                                    0            0            27502224220143
00000140080056AGIN TAB                                          20                                                                                                  0            0            7501400800564
00000221314250AGLUMET                                           500 MG TAB 60                                                                                       0            0            7502213142506
00000221314225AGLUMET                                           850 MG TAB 30                                                                                       0            0            7502213142254
00000221314251AGLUMET                                           850 MG TAB 60                                                                                       0            0            7502213142513
00000840000562AGOPAR                                            15MG TAB 7                                                                                          0            0               8400005625
00000840000563AGOPAR                                            30MG TAB 7                                                                                          0            0               8400005632
00000840000564AGOPAR                                            45MG TAB 7                                                                                          0            0               8400005649
00000221679798AGRELESS                                          75 MG TAB 14                                                                                        0            0            7502216797987
00000221679753AGRELESS                                          75 MG TAB 28                                                                                        0            0            7502216797536
00000112511681AGRIFEN                                           500/25/5/4MG TAB 10  300                                                                            0            0            7501125116810
00000112514156AGRIFEN                                           500/25/5/4MG TAB 15 + 50                                                                            0            0            7501125141560
00000223476986AGRIFEN COOL COMPRESA DE GEL C/                   5                                                                                                   0            0            7502234769867
00000109053228AGRIFIN                                           450 MG BLIST CAPS 30                                                                                0            0            7501090532288
00000840000177A-GRIN                                            50,000 UI FCO 40 CAPS    GOB                                                                        0            0               8400001771
00000024002895AH-MICOL                                          150/200 MG TAB 2                                                                                    0            0             650240028953
00000108630129AH-MICOL                                          150/200MG TAB 2 DUO                                                                                 0            0            7501086301294
00000125083860AIPRATEX                                          20/0.25 MG TAB 30                                                                                   0            0            7501250838601
00000220985002AITYX                                             150 MG CAPS 14             N                                                                        0            0            7502209850026
00000220985001AITYX                                             150 MG CAPS 28             N                                                                        0            0            7502209850019
00000220985007AITYX                                             75 MG CAPS 14              N                                                                        0            0            7502209850071
00000220985003AITYX                                             75 MG CAPS 28              N                                                                        0            0            7502209850033
00000113071103AJOVIT GELCAPS CAPS                               100                                                                                                 0            0            7501130711031
00000113070927AJOVIT-OPTIM GELCAPS CAPS                         30                                                                                                  0            0            7501130709274
00000113071106AJOVIT-PEREJIL GELCAPS CAPS                       100                                                                                                 0            0            7501130711062
00000107090351AKABAR                                            200 MG CAPS 16                                                                                      0            0            7501070903510
00000622260166AKATINOL                                          10 MG TAB 14                                                                                        0            0            4046222601669
00000622246474AKATINOL                                          10 MG TAB 28                                                                                        0            0            4046222464745
00000622260164AKATINOL                                          10 MG TAB 28                                                                                        0            0            4046222601645
00000622260165AKATINOL                                          10 MG TAB 56                                                                                        0            0            4046222601652
00000622241044AKATINOL                                          20 MG TAB 14                                                                                        0            0            4046222410445
00000622241045AKATINOL                                          20 MG TAB 28        576                                                                             0            0            4046222410452
00000136169142AKEN                                              5 MG TAB 10                                                                                         0            0            7501361691423
00000136169143AKEN                                              5 MG TAB 30                                                                                         0            0            7501361691430
00000136169228AKEN                                              5MG TAB 100                                                                                         0            0            7501361692284
00000108980335AKINETON                                          2 MG TAB 30                                                                                         0            0            7501089803351
00000108980336AKINETON-RETARD                                   4 MG TAB 20 LP                                                                                      0            0            7501089803368
00000222422505AKROCELL                                          1 MG CAPS 50                                                                                        0            0            7502224225052
00000222422508AKROCELL                                          5 MG CAPS 100                                                                                       0            0            7502224225083
00000222422509AKROCELL TACROLIMUS                               1MG. C/50CAPS.                                                                                      0            0            7502224225090
00000112481583AKSPRI                                            1000 MG TAB LP 30                                                                                   0            0            7501124815837
00000112481557AKSPRI                                            500 MG TAB LP 30                                                                                    0            0            7501124815578
00000107571973ALBENDAZOL                                        200 MG TAB 2        LGEN                                                                            0            0            7501075719734
00000153710209ALBENDAZOL                                        200 MG TAB 6        LGEN                                                                            0            0            7501537102098
00000167267113ALBENDAZOL                                        200 MG TABLETAS 6     GI                                                                            0            0            7501672671138
00000110164081ALBORAL                                           10 MG TAB 40                                                                                        0            0            7501101640810
00000110163081ALBORAL                                           5 MG TAB 40                                                                                         0            0            7501101630811
00000300654304ALCACHOFA DIET                                    500MG CAPS 60                                                                                       0            0            7503006543043
00000221790141ALCACHOFA UNISEX GN-VIDA CAPS                     30                                                                                                  0            0            7502217901413
00000624600008ALCANFOR CALI TAB                                 3 SB 24                                                                                             0            0            7506246000086
00000624600068ALCANFOR TABLETAS SB                              6                                                                                                   0            0            7506246000680
00000128762100ALDACTONE                                         100 MG TAB 30      419                                                                              0            0            7501287621009
00000128762150ALDACTONE-A                                       25 MG TAB 30     442                                                                                0            0            7501287621504
00000132600388ALDOMET                                           250 MG TAB 50                                                                                       0            0            7501326003889
00000220985087ALDOMET                                           250 MG TAB 50                                                                                       0            0            7502209850873
00000132600030ALDOMET                                           500 MG TAB 30                                                                                       0            0            7501326000307
00000220985088ALDOMET                                           500 MG TAB 30                                                                                       0            0            7502209850880
00000221578147ALDROMASIL                                        5 MG TAB 30          GOB                                                                            0            0            7502215781475
00000221679485ALENDRONATO                                       10 MG TABS 30        GM                                                                             0            0            7502216794856
00000221679482ALENDRONATO                                       70 MG TABS 4         GM                                                                             0            0            7502216794825
00000107571974ALENDRONATO SODICO                                70MG TAB4   LGEN                                                                                    0            0            7501075719741
00000221304867ALENDRONATO SODICO                                10MG TAB30   LGEN                                                                                   0            0            7502213048679
00000132897916ALEPSAL                                           100 MG CPR 30                                                                                       0            0            7501328979168
00000132897917ALEPSAL COMP                                      50/50 MG CPR 30                                                                                     0            0            7501328979175
00000158110108ALERLAN TAB                                       100                                                                                                 0            0            7501581101085
00000200440010ALERMI                                            10 MG TAB 10           PTS                                                                          0            0            7502004400105
00000300691602ALEVAL                                            100 MG TAB 14                                                                                       0            0            7503006916021
00000300691601ALEVAL                                            50 MG TAB 14                                                                                        0            0            7503006916014
00000159028307ALEVARIN CAPS                                     45                                                                                                  0            0            7501590283079
00000109277721ALEVIAN DUO                                       100/300MG CAPS32 110                                                                                0            0            7501092777212
00000109277722ALEVIAN DUO                                       100/300MG CAPS64 456                                                                                0            0            7501092777229
00000109277391ALEVIAN-DUO                                       100/300MG CAPS 48                                                                                   0            0            7501092773917
00000109277927ALEVIAN-DUO                                       100/300MG CAPS16 113                                                                                0            0            7501092779278
00000109277046ALFAD                                             1.0 MCG CAPS 30                                                                                     0            0            7501092770466
00000136169113ALFAKEN                                           10 MG TAB 30                                                                                        0            0            7501361691133
00000300261527ALFEM FCO TAB                                     60                                                                                                  0            0            7503002615270
00000143830035ALGA ESPIRULINA SUP ALIM TAB                      60                                                                                                  0            0            7501438300357
00000106291009ALGA SPIRUL SUP ALIM                              400MG TAB 180                                                                                       0            0            7501062910090
00000147831294ALGIDOL                                           200MG CAPS 10                                                                                       0            0            7501478312945
00000147831252ALGIDOL                                           800MG TAB 10                                                                                        0            0            7501478312525
00000105061255ALGITRIN                                          325/200 MG TAB 12                                                                                   0            0            7501050612555
00000105061256ALGITRIN                                          325/200 MG TAB 24                                                                                   0            0            7501050612562
00000222422021ALGOSFAR                                          30/10 MG GRAG 10                                                                                    0            0            7502224220217
00000125083923ALIDUET                                           120/600 MG CAPS 30                                                                                  0            0            7501250839233
00000125083924ALIDUET                                           120/600 MG CAPS 60                                                                                  0            0            7501250839240
00000125084021ALIDUET                                           120/600 MG CAPS 90                                                                                  0            0            7501250840215
00000125083922ALIDUET                                           60/600 MG CAPS 60                                                                                   0            0            7501250839226
00000125084019ALIDUET                                           60/600 MG CAPS 90                                                                                   0            0            7501250840192
00000125083921ALIDUET                                           60/600MG CAPS 30                                                                                    0            0            7501250839219
00000108850560ALIN                                              0.5 MG TAB 30 560                                                                                   0            0            7501088505607
00000108850570ALIN                                              0.75 MG TAB 30 570                                                                                  0            0            7501088505706
00000300277250ALIVOATO                                          1G TAB 40                                                                                           0            0            7503002772508
00000110979052ALKAGEL COMPLEX SUSP                              360 ML                                                                                              0            0            7501109790524
00000100849791ALKA-RELIEF                                       500 MG TAB MAST 30                                                                                  0            0            7501008497913
00000100849759ALKA-SELTZER BOOST TAB EFERV                      10                                                                                                  0            0            7501008497593
00000100844319ALKA-SELTZER LIMALIMONTAB                         12                                                                                                  0            0            7501008443194
00000100844303ALKA-SELTZER TAB                                  12          301                                                                                     0            0            7501008443033
00000070601003ALKERAN                                           2 MG TAB 25                                                                                         0            0            5010706010031
00000116500171ALLEGRA                                           120 MG CPR 10                                                                                       0            0            7501165001718
00000116500172ALLEGRA                                           180 MG CPR 10                                                                                       0            0            7501165001725
00000116500638ALLEGRA D                                         60MG 25 MG TAB 10  482                                                                              0            0            7501165006386
00000116500478ALLEGRA INF                                       30 MG CPR 10                                                                                        0            0            7501165004788
00000024001380ALLIVIAX                                          550MG TAB 10        214                                                                             0            0             650240013805
00000030825951ALMAX                                             500 MG TAB MAST 30                                                                                  0            0            8430308259510
00000105061715ALMETEC                                           20 MG TAB 14                                                                                        0            0            7501050617154
00000105061716ALMETEC                                           20 MG TAB 28                                                                                        0            0            7501050617161
00000105061717ALMETEC                                           40 MG TAB 14                                                                                        0            0            7501050617178
00000105061718ALMETEC                                           40 MG TAB 28         559                                                                            0            0            7501050617185
00000105061719ALMETEC-CO                                        20/12.5 MG CPR 14                                                                                   0            0            7501050617192
00000105061720ALMETEC-CO                                        20/12.5 MG CPR 28                                                                                   0            0            7501050617208
00000105061760ALMETEC-CO                                        40/12.5 MG CPR 14                                                                                   0            0            7501050617604
00000105061761ALMETEC-CO                                        40/12.5 MG CPR 28 367                                                                               0            0            7501050617611
00000105062789ALMETEC-CO                                        40/25 MG CPR 14                                                                                     0            0            7501050627894
00000105062788ALMETEC-CO                                        40/25 MG CPR 28                                                                                     0            0            7501050627887
00000030802651ALMOGRAN                                          12.5 MG COMP 2                                                                                      0            0            8430308026518
00000112516276ALMURA                                            100 MG CPR 3                                                                                        0            0            7501125162763
00000112516275ALMURA                                            20 MG CPR 30                                                                                        0            0            7501125162756
00000144609013ALOPURINOL                                        300 MG TAB 20         GI                                                                            0            0            7501446090134
00000153710210ALOPURINOL                                        300 MG TAB 20       LGEN                                                                            0            0            7501537102104
00000190825029ALOPURINOL                                        300 MG TAB 20       LGEN                                                                            0            0            7501908250298
00000007501535ALOPURINOL                                        300 MG TAB 20      PTSGI                                                                            0            0                 75015350
00000190825534ALOPURINOL                                        300 MG TABLETAS 20    GM                                                                            0            0            7501908255347
00000849900154ALOSTET CAPS                                      15                                                                                                  0            0             748499001541
00000849910029ALOSTET LOC CAPILAR AMP                           10X4 ML                                                                                             0            0             748499100299
00000849950050ALOSTET LOC CAPILAR AMP                           10X4ML + SH                                                                                         0            0             748499500501
00000006560161ALPHABETIC TAB                                    30                                                                                                  0            0              20065601615
00000223476945ALPHA-RT TRATAM ALOPECIA TAB                      150                                                                                                 0            0            7502234769454
00000167260004ALPIN                                             10 MG GRAG 10           PTS                                                                         0            0            7501672600046
00000125083857ALPRASER                                          50/0.25 MG TAB 30                                                                                   0            0            7501250838571
00000125083916ALPRASER SIMPLE                                   50 MG CAPS 14                                                                                       0            0            7501250839165
00000125083917ALPRASER SIMPLE                                   50MG CAPS 28                                                                                        0            0            7501250839172
00000138452025ALPRAZOLAM                                        0.25 MG TAB 30      LGEN                                                                            0            0            7501384520250
00000138452022ALPRAZOLAM                                        2 MG TAB 30         LGEN                                                                            0            0            7501384520229
00000125821209ALTERNA PREDICTOR                                 0.75 MG TAB 2                                                                                       0            0            7501258212090
00000224664101ALTRAX                                            200 MG CAPS 10                                                                                      0            0            7502246641014
00000128768807ALTRULINE                                         100 MG CAPS 14                                                                                      0            0            7501287688071
00000128768801ALTRULINE                                         50 MG TAB 14                                                                                        0            0            7501287688019
00000128768803ALTRULINE                                         50 MG TAB 28       254                                                                              0            0            7501287688033
00000128768808ALTRULINE                                         50 MG TAB 28 TRIPACK                                                                                0            0            7501287688088
00000144604002ALUMINIO-MAGN                                     200MG TABMAS50   LGEN                                                                               0            0            7501446040023
00000103790052ALUPENT                                           20 MG CPR 30                                                                                        0            0            7501037900521
00000138450218ALZAM                                             0.25 MG TAB 60                                                                                      0            0            7501384502188
00000138450219ALZAM                                             0.25 MG TAB 90                                                                                      0            0            7501384502195
00000138450217ALZAM                                             0.25MG TAB 30                                                                                       0            0            7501384502171
00000138450221ALZAM                                             0.5 MG TAB 60                                                                                       0            0            7501384502218
00000138450220ALZAM                                             0.50 MG TAB 30                                                                                      0            0            7501384502201
00000138450222ALZAM                                             0.50 MG TAB 90                                                                                      0            0            7501384502225
00000138450223ALZAM                                             1 MG TAB 30                                                                                         0            0            7501384502232
00000138450226ALZAM                                             2 MG TAB 30                                                                                         0            0            7501384502263
00000300064547AMAL                                              8 MG TAB 10                                                                                         0            0            7503000645477
00000224045043AMAN-CLO-PARAC                                    50/3/300MG CAP24LGEN                                                                                0            0            7502240450438
00000300373887AMAN-CLO-PARAC                                    50/3/300MG TAB15LGEN                                                                                0            0            7503003738879
00000300259183AMANTADINA                                        50/5/3/350MG TAB 10 LGEN                                                                            0            0            7503002591833
00000116500169AMARYL                                            2 MG TAB 15                                                                                         0            0            7501165001695
00000116500576AMARYL                                            3 MG TAB 15                                                                                         0            0            7501165005761
00000116500177AMARYL                                            4 MG TAB 15           493                                                                           0            0            7501165001770
00000116500896AMARYL XM                                         2/850 MG TAB 16                                                                                     0            0            7501165008960
00000116500895AMARYL XM                                         4/850 MG TAB 16                                                                                     0            0            7501165008953
00000116500582AMARYL-M                                          2MG/1000MG TAB 16                                                                                   0            0            7501165005822
00000116500583AMARYL-M                                          4MG/1000MG TAB 16   262                                                                             0            0            7501165005839
00000222742134AMBROXOL                                          30 MG CAPS 10                                                                                       0            0            7502227421345
00000190825025AMBROXOL                                          30 MG COMPRIMIDOS 20    GI                                                                          0            0            7501908250250
00000190825024AMBROXOL                                          30 MG CPR 20          LGEN                                                                          0            0            7501908250243
00000153710129AMBROXOL                                          30 MG CPR 20         PTSGI                                                                          0            0            7501537101299
00000153717462AMBROXOL                                          30 MG CPR 20         PTSGI                                                                          0            0            7501537174620
00000120810033AMBROXOL                                          30 MG TAB 20          LGEN                                                                          0            0             751208100336
00000157120170AMBROXOL/CLENB                                    30/0.02MG TAB20 LGEN                                                                                0            0            7501571201702
00000200440020AMEBYL                                            400/400 MG TAB 20      PTS                                                                          0            0            7502004400204
00000153717312AMECID                                            100 MG TAB 3           PTS                                                                          0            0            7501537173128
00000128762200AMEFIN                                            100 MG TAB 3                                                                                        0            0            7501287622006
00000128762250AMEFIN                                            300 MG TAB 1                                                                                        0            0            7501287622501
00000132897789AMENOX                                            100MG TAB 3                                                                                         0            0            7501328977898
00000124960601AMET                                              100 MCG TAB 50                                                                                      0            0            7501249606013
00000138450109AMIDONE                                           40MG TAB 100 DISPER   FRACI                                                                         0            0            7501384501099
00000112410359AMINOTER SUP ALIM CAPS                            30                                                                                                  0            0            7501124103590
00000147189729AMIODARONA                                        200 MG TAB 20                                                                                       0            0            7501471897296
00000150405085AMIODARONA                                        200 MG TAB 20       LGEN                                                                            0            0            7501504050858
00000221693076AMLIBON                                           5 MG TAB 10 OFTA 1+1                                                                                0            0            7502216930766
00000221693077AMLIBON                                           5 MG TAB 30 OFTA 1+1                                                                                0            0            7502216930773
00000221693422AMLIBON BES                                       5 MG TAB 10                                                                                         0            0            7502216934221
00000221693423AMLIBON BES                                       5 MG TAB 30                                                                                         0            0            7502216934238
00000221693227AMLIBON BES                                       5MG TAB 10 OFTA 1+1                                                                                 0            0            7502216932272
00000221693226AMLIBON BES                                       5MG TAB 30 OFTA 1+1                                                                                 0            0            7502216932265
00000221693228AMLIBON-BES                                       7.5 MG TAB 30                                                                                       0            0            7502216932289
00000221679367AMLODIPINO                                        5 MG FCO TAB 30      PTS                                                                            0            0            7502216793675
00000114297088AMLODIPINO                                        5 MG TAB 10                                                                                         0            0            7501142970884
00000221679783AMLODIPINO                                        5 MG TAB 10                                                                                         0            0            7502216797833
00000136160092AMLODIPINO                                        5 MG TAB 10           GI                                                                            0            0            7501361600920
00000100416090AMLODIPINO                                        5 MG TAB 10         3H                                                                              0            0            7501004160903
00000149386768AMLODIPINO                                        5 MG TAB 10         LGEN                                                                            0            0            7501493867680
00000114297089AMLODIPINO                                        5 MG TAB 30                                                                                         0            0            7501142970891
00000136160093AMLODIPINO                                        5 MG TAB 30           GI                                                                            0            0            7501361600937
00000149386820AMLODIPINO                                        5 MG TAB 30         LGEN                                                                            0            0            7501493868205
00000221679484AMLODIPINO                                        5 MG TABS 10          GI                                                                            0            0            7502216794849
00000157390495AMLODIPINO                                        5MG TAB 10          LGEN                                                                            0            0            7501573904953
00000225326364AMLODIPINO                                        5MG TAB 100                                                                                         0            0            7502253263643
00000149389155AMLODIPINO                                        5MG TAB 30            GI                                                                            0            0            7501493891555
00000157390496AMLODIPINO                                        5MG TAB 30          LGEN                                                                            0            0            7501573904960
00000114297109AMLODIPINO/ATRORVAST                              5/10MG TAB 10                                                                                       0            0            7501142971096
00000114297110AMLODIPINO/ATRORVAST                              5/10MG TAB 30                                                                                       0            0            7501142971102
00000114297111AMLODIPINO/ATRORVAST                              5/20MG TAB 10                                                                                       0            0            7501142971119
00000114297112AMLODIPINO/ATRORVAST                              5/20MG TAB 30                                                                                       0            0            7501142971126
00000149389121AMNIOCOR                                          5 MG TAB 30                                                                                         0            0            7501493891210
00000131865730AMOBAY                                            500 MG CAPS 15                                                                                      0            0            7501318657304
00000131865756AMOBAY CL                                         875/125 MG TAB 10                                                                                   0            0            7501318657564
00000131869546AMOBAY CL                                         875/125 MG TAB 14                                                                                   0            0            7501318695467
00000110990434AMOEBRIZ                                          300/150MG TAB 2                                                                                     0            0            7501109904341
00000633570005AMOX/AC CLAV                                      500/125MGTAB12    LGEN                                                                              0            0            7506335700057
00000300100789AMOXI/AC CLAV                                     500/125 MG TABS 10 GM                                                                               0            0            7503001007892
00000300100790AMOXI/AC CLAV                                     875/125MG TABS 10  GM                                                                               0            0            7503001007908
00000220889274AMOXI/BROMHEX                                     500MG TAB 12     LGEN                                                                               0            0            7502208892744
00000200974252AMOXI/CLAVUL                                      12H 875MG/125 TAB 10                                                                                0            0            7502009742521
00000300100830AMOXI/CLAVULANAT                                  875/125TAB10   LGEN                                                                                 0            0            7503001008301
00000107062215AMOXIBRON                                         500 MG CAPS 12                                                                                      0            0            7501070622152
00000300100831AMOXICI/AMBROX                                    500/30MG CAPS12 LGEN                                                                                0            0            7503001008318
00000120810075AMOXICI/BROMHEX                                   500/8MGCAPS12   LGEN                                                                                0            0             751208100756
00000100416091AMOXICI/CLAVULA                                   875/125MGTAB10 3H                                                                                   0            0            7501004160910
00000120810301AMOXICILIN/BROMHEX                                500MG/8MGCAPS12GM                                                                                   0            0             751208103016
00000300100779AMOXICILINA                                       250 MG  CAPS 12      GI                                                                             0            0            7503001007793
00000138549051AMOXICILINA                                       250 MG CAPS12  HORMO GI                                                                             0            0            7501385490514
00000134280268AMOXICILINA                                       500 MG CAPS 12                                                                                      0            0            7501342802688
00000138549023AMOXICILINA                                       500 MG CAPS 12       GI                                                                             0            0            7501385490231
00000220889428AMOXICILINA                                       500 MG CAPS 12     3H                                                                               0            0            7502208894281
00000120810040AMOXICILINA                                       500 MG CAPS 12     LGEN                                                                             0            0             751208100404
00000300100833AMOXICILINA                                       500 MG CAPS 12     LGEN                                                                             0            0            7503001008332
00000225326051AMOXICILINA                                       500 MG CAPSULAS 12   GI                                                                             0            0            7502253260512
00000300288813AMOXICILINA                                       500MG CAPS 12      LGEN                                                                             0            0            7503002888131
00000138549052AMOXICILINA                                       500MG CAPS 12  HORMO GI                                                                             0            0            7501385490521
00000120812128AMOXICILINA                                       500MG CAPS 12 GI   LGEN                                                                             0            0             751208121287
00000300100794AMOXICILINA/AMBROXOL                              500/30MGCAP12GM                                                                                     0            0            7503001007946
00000157120369AMOXICILINA/BROM                                  500/8MG CAPS12 LGEN                                                                                 0            0            7501571203690
00000134280278AMOXICILINA/CLAVU                                 500/125MG TAB10                                                                                     0            0            7501342802787
00000134280279AMOXICILINA/CLAVU                                 875/125MG TAB10                                                                                     0            0            7501342802794
00000112511832AMOXICLAV                                         500/125 MG TAB 15                                                                                   0            0            7501125118326
00000112511833AMOXICLAV-BID                                     875/125MGTAB14 176                                                                                  0            0            7501125118333
00000127708074AMOXI-CLAVULANICO TAB                             12      PTSGI                                                                                       0            0            7501277080748
00000125081070AMOXICLIDE CAPS                                   20                                                                                                  0            0            7501250810706
00000125083882AMOXICLIDE CAPS                                   30                                                                                                  0            0            7501250838823
00000107061344AMOXIL                                            500 MG CAPS 12                                                                                      0            0            7501070613440
00000107061338AMOXIL-                                           12H 875 MG TAB 10                                                                                   0            0            7501070613389
00000112296071AMOXIVET                                          500 MG CAPS 12                                                                                      0            0            7501122960713
00000147188787AMPICILINA                                        1 G TAB 10                                                                                          0            0            7501471887877
00000147188655AMPICILINA                                        250 MG CAPS 20        GI                                                                            0            0            7501471886559
00000300100783AMPICILINA                                        250 MG CAPS 20        GI                                                                            0            0            7503001007830
00000300100835AMPICILINA                                        250 MG CAPS 20      LGEN                                                                            0            0            7503001008356
00000120810306AMPICILINA                                        500 MG CAPS 20        GI                                                                            0            0             751208103061
00000300100799AMPICILINA                                        500 MG CAPS 20        GI                                                                            0            0            7503001007991
00000220889430AMPICILINA                                        500 MG CAPS 20      3H                                                                              0            0            7502208894304
00000120811929AMPICILINA                                        500 MG CAPS 20      LGEN                                                                            0            0             751208119291
00000300100837AMPICILINA                                        500 MG CAPS 20      LGEN                                                                            0            0            7503001008370
00000138549031AMPICILINA                                        500 MG CAPS 20  HORMO GI                                                                            0            0            7501385490316
00000147188841AMPICILINA                                        500 MG TAB 20         GI                                                                            0            0            7501471888416
00000120810466AMPICILINA                                        500MG CAPS 20       LGEN                                                                            0            0             751208104662
00000300288807AMPICILINA                                        500MG CAPS 20       LGEN                                                                            0            0            7503002888070
00000130040840AMPLIRON                                          750 MG TAB 12                                                                                       0            0            7501300408402
00000130040813AMPLIRON-DUO                                      875/125MG CPR14 294                                                                                 0            0            7501300408136
00000222422066ANAFOL                                            300 MG CPR 10                                                                                       0            0            7502224220668
00000109491002ANAFRANIL                                         25 MG GRAG 30                                                                                       0            0            7501094910020
00000109491003ANAFRANIL-RETARD                                  75 MG GRAG 10                                                                                       0            0            7501094910037
00000153971041ANAL-G SUPL ALIM CAPS                             60                                                                                                  0            0            7501539710413
00000129930627ANALGEN                                           220 MG TAB 20                                                                                       0            0            7501299306277
00000129930591ANALGEN                                           550 MG TAB 12                                                                                       0            0            7501299305911
00000129930055ANALGEN ARTRITIS                                  220MG TAB 60                                                                                        0            0            7501299300558
00000129930626ANALGEN COLICO-MENST                              220MG TAB10                                                                                         0            0            7501299306260
00000301719324ANALGEN FORTE COL-MENST INT TAB                   12                                                                                                  0            0            7503017193244
00000301719306ANALGEN-FORTE                                     220/300MG TAB 12                                                                                    0            0            7503017193060
00000116500185ANANDRON                                          150 MG CPR 30                                                                                       0            0            7501165001855
00000138450312ANAPSIQUE                                         25 MG TAB 50                                                                                        0            0            7501384503123
00000138450311ANAPSIQUE                                         50 MG TAB 20                                                                                        0            0            7501384503116
00000108850892ANARA                                             5MG TAB 20                                                                                          0            0            7501088508929
00000107061297ANDANTOL                                          4 MG GRAG C/20                                                                                      0            0            7501070612979
00000129320170ANDANZA                                           120 MG TAB 30                                                                                       0            0            7501293201707
00000129320175ANDANZA                                           60 MG TAB 30                                                                                        0            0            7501293201752
00000140920157ANDRIOL-TC                                        40 MG CAPS 30                                                                                       0            0            7501409201577
00000130345156ANDROCUR                                          50 MG TAB 20                                                                                        0            0            7501303451566
00000138454382ANEPIGRAN                                         100 MG TAB 20                                                                                       0            0            7501384543822
00000138454425ANEPIGRAN                                         100 MG TAB 20 1+1                                                                                   0            0            7501384544256
00000138454378ANEPIGRAN                                         25 MG TAB 20                                                                                        0            0            7501384543785
00000138454423ANEPIGRAN                                         25 MG TAB 20 1+1                                                                                    0            0            7501384544232
00000138454380ANEPIGRAN                                         50 MG TAB 20                                                                                        0            0            7501384543808
00000138454424ANEPIGRAN                                         50 MG TAB 20 1+1                                                                                    0            0            7501384544249
00000300310127ANGELICA COMPUESTA SUP ALIM                       50 ML                                                                                               0            0            7503003101277
00000130345155ANGELIQ                                           1/2 MG CPR RECUB28   314                                                                            0            0            7501303451559
00000223576009ANGIE                                             2.0/0.035MG CPR 21                                                                                  0            0            7502235760092
00000108980201ANGIOTROFIN                                       30 MG TAB 30                                                                                        0            0            7501089802019
00000108980202ANGIOTROFIN                                       60 MG TAB 30                                                                                        0            0            7501089802026
00000108980204ANGIOTROFIN-A-P                                   120MG TAB 20                                                                                        0            0            7501089802040
00000108980222ANGIOTROFIN-A-P                                   300MG TAB 10                                                                                        0            0            7501089802224
00000108980203ANGIOTROFIN-A-P                                   90 MG TAB 20                                                                                        0            0            7501089802033
00000108980205ANGIOTROFIN-RETARD                                180MG TAB10                                                                                         0            0            7501089802057
00000108980206ANGIOTROFIN-RETARD                                240MG TAB10                                                                                         0            0            7501089802064
00000112485016ANGLIX                                            0.8 MG CAPS 24                                                                                      0            0            7501124850166
00000221679228ANHITEN-A                                         30MG CPR 30 LIB PROL  GOB                                                                           0            0            7502216792289
00000221693299ANIAVANT                                          10 MG TAB 14                                                                                        0            0            7502216932999
00000221693342ANIAVANT                                          10 MG TAB 28                                                                                        0            0            7502216933422
00000139091005ANITRIM-F                                         160/800 MG TAB 14                                                                                   0            0            7501390910052
00000300691663ANNA                                              1 MG TAB 14                                                                                         0            0            7503006916632
00000300691661ANNA                                              1 MG TAB 28                                                                                         0            0            7503006916618
00000128762575ANSAID                                            100 MG GRAG 15                                                                                      0            0            7501287625755
00000128762570ANSAID FEM                                        100 MG GRAG 10                                                                                      0            0            7501287625700
00000625180250ANSOLAR SPF                                       30 2.5 G CAPS 20                                                                                    0            0            7896251802509
00000625180303ANSOLAR SPF                                       30 2.5 G CAPS 20                                                                                    0            0            7896251803032
00000129930007ANTAGON                                           1 TAB 10                                                                                            0            0            7501299300077
00000129320005ANTALGIN                                          60 MG CAPS 20                                                                                       0            0            7501293200052
00000113070367ANTICHOLESTEROL PACKCAPS                          4X30                                                                                                0            0            7501130703678
00000108850977ANTIFLU-DES CAPS                                  24          020                                                                                     0            0            7501088509773
00000102210198ANTILIP OMEGA                                     3Y6 SUP ALIM CAPS60                                                                                 0            0            7501022101988
